{
  "_format": "hh-sol-artifact-1",
  "contractName": "Oracle",
  "sourceName": "contracts/Oracle.sol",
  "abi": [
    {
      "inputs": [],
      "name": "FN_NUM_GET_CONFIG_VARIABLE_ADDRESS",
      "outputs": [
        {
          "internalType": "address",
          "name": "",
          "type": "address"
        }
      ],
      "stateMutability": "view",
      "type": "function"
    },
    {
      "inputs": [],
      "name": "FN_NUM_GET_CONFIG_VARIABLE_STRING",
      "outputs": [
        {
          "internalType": "address",
          "name": "",
          "type": "address"
        }
      ],
      "stateMutability": "view",
      "type": "function"
    },
    {
      "inputs": [],
      "name": "FN_NUM_GET_CONFIG_VARIABLE_UINT256",
      "outputs": [
        {
          "internalType": "address",
          "name": "",
          "type": "address"
        }
      ],
      "stateMutability": "view",
      "type": "function"
    },
    {
      "inputs": [
        {
          "components": [
            {
              "internalType": "uint256",
              "name": "cid",
              "type": "uint256"
            },
            {
              "internalType": "string",
              "name": "uri",
              "type": "string"
            },
            {
              "internalType": "string",
              "name": "encoding",
              "type": "string"
            },
            {
              "internalType": "string",
              "name": "ethApi",
              "type": "string"
            },
            {
              "internalType": "string",
              "name": "params",
              "type": "string"
            },
            {
              "internalType": "string[]",
              "name": "jsps",
              "type": "string[]"
            },
            {
              "internalType": "uint256[]",
              "name": "trims",
              "type": "uint256[]"
            },
            {
              "internalType": "string",
              "name": "post",
              "type": "string"
            },
            {
              "internalType": "uint256",
              "name": "time",
              "type": "uint256"
            },
            {
              "internalType": "string[]",
              "name": "rslts",
              "type": "string[]"
            },
            {
              "components": [
                {
                  "internalType": "uint8",
                  "name": "v",
                  "type": "uint8"
                },
                {
                  "internalType": "bytes32",
                  "name": "r",
                  "type": "bytes32"
                },
                {
                  "internalType": "bytes32",
                  "name": "s",
                  "type": "bytes32"
                }
              ],
              "internalType": "struct IVerifier.Signature[]",
              "name": "sigs",
              "type": "tuple[]"
            }
          ],
          "internalType": "struct IOracle.OracleResponse",
          "name": "response",
          "type": "tuple"
        }
      ],
      "name": "combineOracleResponse",
      "outputs": [
        {
          "internalType": "string",
          "name": "wholeData",
          "type": "string"
        }
      ],
      "stateMutability": "pure",
      "type": "function"
    },
    {
      "inputs": [
        {
          "internalType": "uint256",
          "name": "nodeIndex",
          "type": "uint256"
        }
      ],
      "name": "getNodeAddress",
      "outputs": [
        {
          "internalType": "address",
          "name": "",
          "type": "address"
        }
      ],
      "stateMutability": "view",
      "type": "function"
    },
    {
      "inputs": [],
      "name": "getNumberOfNodesInSchain",
      "outputs": [
        {
          "internalType": "uint256",
          "name": "",
          "type": "uint256"
        }
      ],
      "stateMutability": "view",
      "type": "function"
    },
    {
      "inputs": [],
      "name": "getTrustNumberOfNodes",
      "outputs": [
        {
          "internalType": "uint256",
          "name": "",
          "type": "uint256"
        }
      ],
      "stateMutability": "view",
      "type": "function"
    },
    {
      "inputs": [
        {
          "internalType": "bytes32",
          "name": "hashedMessage",
          "type": "bytes32"
        },
        {
          "components": [
            {
              "internalType": "uint8",
              "name": "v",
              "type": "uint8"
            },
            {
              "internalType": "bytes32",
              "name": "r",
              "type": "bytes32"
            },
            {
              "internalType": "bytes32",
              "name": "s",
              "type": "bytes32"
            }
          ],
          "internalType": "struct IVerifier.Signature[]",
          "name": "signatures",
          "type": "tuple[]"
        }
      ],
      "name": "verifyArrayOfSignatures",
      "outputs": [
        {
          "internalType": "bool",
          "name": "",
          "type": "bool"
        }
      ],
      "stateMutability": "view",
      "type": "function"
    },
    {
      "inputs": [
        {
          "components": [
            {
              "internalType": "uint256",
              "name": "cid",
              "type": "uint256"
            },
            {
              "internalType": "string",
              "name": "uri",
              "type": "string"
            },
            {
              "internalType": "string",
              "name": "encoding",
              "type": "string"
            },
            {
              "internalType": "string",
              "name": "ethApi",
              "type": "string"
            },
            {
              "internalType": "string",
              "name": "params",
              "type": "string"
            },
            {
              "internalType": "string[]",
              "name": "jsps",
              "type": "string[]"
            },
            {
              "internalType": "uint256[]",
              "name": "trims",
              "type": "uint256[]"
            },
            {
              "internalType": "string",
              "name": "post",
              "type": "string"
            },
            {
              "internalType": "uint256",
              "name": "time",
              "type": "uint256"
            },
            {
              "internalType": "string[]",
              "name": "rslts",
              "type": "string[]"
            },
            {
              "components": [
                {
                  "internalType": "uint8",
                  "name": "v",
                  "type": "uint8"
                },
                {
                  "internalType": "bytes32",
                  "name": "r",
                  "type": "bytes32"
                },
                {
                  "internalType": "bytes32",
                  "name": "s",
                  "type": "bytes32"
                }
              ],
              "internalType": "struct IVerifier.Signature[]",
              "name": "sigs",
              "type": "tuple[]"
            }
          ],
          "internalType": "struct IOracle.OracleResponse",
          "name": "response",
          "type": "tuple"
        }
      ],
      "name": "verifyOracleResponse",
      "outputs": [
        {
          "internalType": "bool",
          "name": "",
          "type": "bool"
        }
      ],
      "stateMutability": "view",
      "type": "function"
    },
    {
      "inputs": [
        {
          "internalType": "uint256",
          "name": "nodeIndex",
          "type": "uint256"
        },
        {
          "internalType": "bytes32",
          "name": "hashedMessage",
          "type": "bytes32"
        },
        {
          "components": [
            {
              "internalType": "uint8",
              "name": "v",
              "type": "uint8"
            },
            {
              "internalType": "bytes32",
              "name": "r",
              "type": "bytes32"
            },
            {
              "internalType": "bytes32",
              "name": "s",
              "type": "bytes32"
            }
          ],
          "internalType": "struct IVerifier.Signature",
          "name": "signature",
          "type": "tuple"
        }
      ],
      "name": "verifySignature",
      "outputs": [
        {
          "internalType": "bool",
          "name": "",
          "type": "bool"
        }
      ],
      "stateMutability": "view",
      "type": "function"
    }
  ],
  "bytecode": "0x608060405234801561001057600080fd5b50611b60806100206000396000f3fe608060405234801561001057600080fd5b506004361061009e5760003560e01c806396ff22ba1161006657806396ff22ba1461011c578063a113f6571461012f578063ab2a585314610137578063c3becd831461013f578063e2ea8f7a1461015f57600080fd5b80632c61a469146100a3578063446e847f146100be5780636703afa4146100e95780636ae7ff601461010c5780638e372c1514610114575b600080fd5b6100ab610172565b6040519081526020015b60405180910390f35b6100d16100cc36600461104d565b61019c565b6040516001600160a01b0390911681526020016100b5565b6100fc6100f7366004611331565b6101d9565b60405190151581526020016100b5565b6100d1601481565b6100ab610327565b6100fc61012a3660046114da565b61036c565b6100d1601581565b6100d1601381565b61015261014d366004611331565b6103aa565b6040516100b59190611540565b6100fc61016d366004611573565b6103ee565b60008061017d610327565b9050600361018c8260026115d0565b61019691906115fe565b91505090565b6000806101a8836104d9565b6040516020016101b89190611612565b60405160208183030381529060405290506101d2816105da565b9392505050565b600080826060015151118061022b575060008260a00151511180156102085750816101200151518260a0015151145b801561022b575060c082015151158061022b5750816101200151518260c0015151145b61027c5760405162461bcd60e51b815260206004820152601b60248201527f496e636f7272656374206e756d626572206f6620726573756c7473000000000060448201526064015b60405180910390fd5b610284610327565b82610140015151146102d85760405162461bcd60e51b815260206004820152601c60248201527f496e76616c6964206c656e677468206f66207369676e617475726573000000006044820152606401610273565b60006102e3836103aa565b90506000816040516020016102f89190611668565b60405160208183030381529060405280519060200120905061031f818561014001516103ee565b949350505050565b60006103676040518060400160405280601f81526020017f736b616c65436f6e6669672e73436861696e2e6e6f6465732e6c656e677468008152506106be565b905090565b6000806103788561019c565b83516020850151604086015192935061039492879291906107a2565b6001600160a01b03918216911614949350505050565b60606103e8826000015183602001518460400151856060015186608001518760a001518860c001518960e001518a61010001518b61012001516107ca565b92915050565b600080805b83518110156104c75783818151811061040e5761040e611684565b60200260200101516000015160ff16600014158061044c57506000801b84828151811061043d5761043d611684565b60200260200101516020015114155b8061047757506000801b84828151811061046857610468611684565b60200260200101516040015114155b80156104a257506104a2818686848151811061049557610495611684565b602002602001015161036c565b156104b557816104b18161169a565b9250505b806104bf8161169a565b9150506103f3565b506104d0610172565b11159392505050565b6060816000036105005750506040805180820190915260018152600360fc1b602082015290565b8160005b811561052a57806105148161169a565b91506105239050600a836115fe565b9150610504565b60008167ffffffffffffffff81111561054557610545611066565b6040519080825280601f01601f19166020018201604052801561056f576020820181803683370190505b5090505b841561031f576105846001836116b3565b9150610591600a866116ca565b61059c9060306115d0565b60f81b8183815181106105b1576105b1611684565b60200101906001600160f81b031916908160001a9053506105d3600a866115fe565b9450610573565b600080600060146001600160a01b03168451856040516020016105fe9291906116de565b60408051601f198184030181529082905261061891611668565b600060405180830381855afa9150503d8060008114610653576040519150601f19603f3d011682016040523d82523d6000602084013e610658565b606091505b5091509150816106aa5760405162461bcd60e51b815260206004820152601960248201527f47657420636f6e6669672061646472657373206661696c6564000000000000006044820152606401610273565b8080602001905181019061031f9190611704565b600080600060136001600160a01b03168451856040516020016106e29291906116de565b60408051601f19818403018152908290526106fc91611668565b600060405180830381855afa9150503d8060008114610737576040519150601f19603f3d011682016040523d82523d6000602084013e61073c565b606091505b50915091508161078e5760405162461bcd60e51b815260206004820152601960248201527f47657420636f6e6669672075696e74323536206661696c6564000000000000006044820152606401610273565b8080602001905181019061031f919061172d565b60008060006107b387878787610a51565b915091506107c081610b3e565b5095945050505050565b606060006107d78c6104d9565b8b8b6040516020016107eb93929190611746565b60408051601f1981840301815260208301909152600082528a519092501561081e576108178a8a610cf7565b905061082c565b610829888888610daf565b90505b6000610837866104d9565b60405160200161084791906117dc565b60408051601f1981840301815282820190915260098252682272736c7473223a5b60b81b6020830152915060005b6001875161088391906116b3565b81101561096157816108ca8883815181106108a0576108a0611684565b6020026020010151604051806040016040528060048152602001631b9d5b1b60e21b815250610ff4565b156108f257604051806040016040528060058152602001641b9d5b1b0b60da1b81525061092c565b87828151811061090457610904611684565b602002602001015160405160200161091c9190611817565b6040516020818303038152906040525b60405160200161093d92919061184d565b604051602081830303815290604052915080806109599061169a565b915050610875565b5080610985876001895161097591906116b3565b815181106108a0576108a0611684565b156109ae57604051806040016040528060068152602001651b9d5b1b174b60d21b8152506109f5565b86600188516109bd91906116b3565b815181106109cd576109cd611684565b60200260200101516040516020016109e5919061187c565b6040516020818303038152906040525b604051602001610a0692919061184d565b604051602081830303815290604052905083838383604051602001610a2e94939291906118b3565b6040516020818303038152906040529450505050509a9950505050505050505050565b6000807f7fffffffffffffffffffffffffffffff5d576e7357a4501ddfe92f46681b20a0831115610a885750600090506003610b35565b8460ff16601b14158015610aa057508460ff16601c14155b15610ab15750600090506004610b35565b6040805160008082526020820180845289905260ff881692820192909252606081018690526080810185905260019060a0016020604051602081039080840390855afa158015610b05573d6000803e3d6000fd5b5050604051601f1901519150506001600160a01b038116610b2e57600060019250925050610b35565b9150600090505b94509492505050565b6000816004811115610b5257610b5261190a565b03610b5a5750565b6001816004811115610b6e57610b6e61190a565b03610bbb5760405162461bcd60e51b815260206004820152601860248201527f45434453413a20696e76616c6964207369676e617475726500000000000000006044820152606401610273565b6002816004811115610bcf57610bcf61190a565b03610c1c5760405162461bcd60e51b815260206004820152601f60248201527f45434453413a20696e76616c6964207369676e6174757265206c656e677468006044820152606401610273565b6003816004811115610c3057610c3061190a565b03610c885760405162461bcd60e51b815260206004820152602260248201527f45434453413a20696e76616c6964207369676e6174757265202773272076616c604482015261756560f01b6064820152608401610273565b6004816004811115610c9c57610c9c61190a565b03610cf45760405162461bcd60e51b815260206004820152602260248201527f45434453413a20696e76616c6964207369676e6174757265202776272076616c604482015261756560f01b6064820152608401610273565b50565b6060600083604051602001610d0c9190611920565b6040516020818303038152906040529050600084511115610d4a5783604051602001610d389190611920565b60405160208183030381529060405290505b604080516020810190915260008152835115610d835783604051602001610d71919061195f565b60405160208183030381529060405290505b8181604051602001610d9692919061184d565b6040516020818303038152906040529250505092915050565b60408051602081019091526000815283516060919015610e9d5750604080518082019091526008815267226a737073223a5b60c01b602082015260005b60018651610dfa91906116b3565b811015610e515781868281518110610e1457610e14611684565b6020026020010151604051602001610e2d92919061199c565b60405160208183030381529060405291508080610e499061169a565b915050610dec565b50808560018751610e6291906116b3565b81518110610e7257610e72611684565b6020026020010151604051602001610e8b9291906119e7565b60405160208183030381529060405290505b604080516020810190915260008152845115610f8b5750604080518082019091526009815268227472696d73223a5b60b81b602082015260005b60018651610ee591906116b3565b811015610f445781610f0f878381518110610f0257610f02611684565b60200260200101516104d9565b604051602001610f20929190611a33565b60405160208183030381529060405291508080610f3c9061169a565b915050610ed7565b5080610f688660018851610f5891906116b3565b81518110610f0257610f02611684565b604051602001610f79929190611a6e565b60405160208183030381529060405290505b604080516020810190915260008152845115610fc45784604051602001610fb29190611aaa565b60405160208183030381529060405290505b828282604051602001610fd993929190611ae7565b60405160208183030381529060405293505050509392505050565b6000816040516020016110079190611668565b604051602081830303815290604052805190602001208360405160200161102e9190611668565b6040516020818303038152906040528051906020012014905092915050565b60006020828403121561105f57600080fd5b5035919050565b634e487b7160e01b600052604160045260246000fd5b604051610160810167ffffffffffffffff811182821017156110a0576110a0611066565b60405290565b604051601f8201601f1916810167ffffffffffffffff811182821017156110cf576110cf611066565b604052919050565b600082601f8301126110e857600080fd5b813567ffffffffffffffff81111561110257611102611066565b611115601f8201601f19166020016110a6565b81815284602083860101111561112a57600080fd5b816020850160208301376000918101602001919091529392505050565b600067ffffffffffffffff82111561116157611161611066565b5060051b60200190565b600082601f83011261117c57600080fd5b8135602061119161118c83611147565b6110a6565b82815260059290921b840181019181810190868411156111b057600080fd5b8286015b848110156111f057803567ffffffffffffffff8111156111d45760008081fd5b6111e28986838b01016110d7565b8452509183019183016111b4565b509695505050505050565b600082601f83011261120c57600080fd5b8135602061121c61118c83611147565b82815260059290921b8401810191818101908684111561123b57600080fd5b8286015b848110156111f0578035835291830191830161123f565b60006060828403121561126857600080fd5b6040516060810181811067ffffffffffffffff8211171561128b5761128b611066565b604052905080823560ff811681146112a257600080fd5b8082525060208301356020820152604083013560408201525092915050565b600082601f8301126112d257600080fd5b813560206112e261118c83611147565b8281526060928302850182019282820191908785111561130157600080fd5b8387015b85811015611324576113178982611256565b8452928401928101611305565b5090979650505050505050565b60006020828403121561134357600080fd5b813567ffffffffffffffff8082111561135b57600080fd5b90830190610160828603121561137057600080fd5b61137861107c565b8235815260208301358281111561138e57600080fd5b61139a878286016110d7565b6020830152506040830135828111156113b257600080fd5b6113be878286016110d7565b6040830152506060830135828111156113d657600080fd5b6113e2878286016110d7565b6060830152506080830135828111156113fa57600080fd5b611406878286016110d7565b60808301525060a08301358281111561141e57600080fd5b61142a8782860161116b565b60a08301525060c08301358281111561144257600080fd5b61144e878286016111fb565b60c08301525060e08301358281111561146657600080fd5b611472878286016110d7565b60e0830152506101008381013590820152610120808401358381111561149757600080fd5b6114a38882870161116b565b82840152505061014080840135838111156114bd57600080fd5b6114c9888287016112c1565b918301919091525095945050505050565b600080600060a084860312156114ef57600080fd5b83359250602084013591506115078560408601611256565b90509250925092565b60005b8381101561152b578181015183820152602001611513565b8381111561153a576000848401525b50505050565b602081526000825180602084015261155f816040850160208701611510565b601f01601f19169190910160400192915050565b6000806040838503121561158657600080fd5b82359150602083013567ffffffffffffffff8111156115a457600080fd5b6115b0858286016112c1565b9150509250929050565b634e487b7160e01b600052601160045260246000fd5b600082198211156115e3576115e36115ba565b500190565b634e487b7160e01b600052601260045260246000fd5b60008261160d5761160d6115e8565b500490565b7f736b616c65436f6e6669672e73436861696e2e6e6f6465732e5b00000000000081526000825161164a81601a850160208701611510565b662e9737bbb732b960c91b601a939091019283015250602101919050565b6000825161167a818460208701611510565b9190910192915050565b634e487b7160e01b600052603260045260246000fd5b6000600182016116ac576116ac6115ba565b5060010190565b6000828210156116c5576116c56115ba565b500390565b6000826116d9576116d96115e8565b500690565b828152600082516116f6816020850160208701611510565b919091016020019392505050565b60006020828403121561171657600080fd5b81516001600160a01b03811681146101d257600080fd5b60006020828403121561173f57600080fd5b5051919050565b663d9131b4b2111d60c91b81528351600090611769816007850160208901611510565b6716113ab934911d1160c11b600791840191820152845161179181600f840160208901611510565b6d11161132b731b7b234b733911d1160911b600f929091019182015283516117c081601d840160208801611510565b61088b60f21b601d9290910191820152601f0195945050505050565b66113a34b6b2911d60c91b815281516000906117ff816007850160208701611510565b600b60fa1b6007939091019283015250600801919050565b601160f91b81528151600090611834816001850160208701611510565b61088b60f21b6001939091019283015250600301919050565b6000835161185f818460208801611510565b835190830190611873818360208801611510565b01949350505050565b601160f91b81528151600090611899816001850160208701611510565b6208974b60ea1b6001939091019283015250600401919050565b600085516118c5818460208a01611510565b8551908301906118d9818360208a01611510565b85519101906118ec818360208901611510565b84519101906118ff818360208801611510565b019695505050505050565b634e487b7160e01b600052602160045260246000fd5b691132ba3420b834911d1160b11b8152815160009061194681600a850160208701611510565b61088b60f21b600a939091019283015250600c01919050565b68113830b930b6b9911d60b91b81528151600090611984816009850160208701611510565b600b60fa1b6009939091019283015250600a01919050565b600083516119ae818460208801611510565b601160f91b90830190815283516119cc816001840160208801611510565b61088b60f21b60019290910191820152600301949350505050565b600083516119f9818460208801611510565b601160f91b9083019081528351611a17816001840160208801611510565b6208974b60ea1b60019290910191820152600401949350505050565b60008351611a45818460208801611510565b835190830190611a59818360208801611510565b600b60fa1b9101908152600101949350505050565b60008351611a80818460208801611510565b835190830190611a94818360208801611510565b61174b60f21b9101908152600201949350505050565b67113837b9ba111d1160c11b81528151600090611ace816008850160208701611510565b61088b60f21b6008939091019283015250600a01919050565b60008451611af9818460208901611510565b845190830190611b0d818360208901611510565b8451910190611b20818360208801611510565b019594505050505056fea2646970667358221220687833f5eeaa70b8b3f4187c8df99ee48f41bd4500fd716d32e272e59f7817d564736f6c634300080d0033",
  "linkReferences": {},
  "deployedLinkReferences": {}
}