{
  "_format": "hh-sol-artifact-1",
  "contractName": "OracleUpgradeable",
  "sourceName": "contracts/OracleUpgradeable.sol",
  "abi": [
    {
      "anonymous": false,
      "inputs": [
        {
          "indexed": false,
          "internalType": "uint8",
          "name": "version",
          "type": "uint8"
        }
      ],
      "name": "Initialized",
      "type": "event"
    },
    {
      "inputs": [],
      "name": "FN_NUM_GET_CONFIG_VARIABLE_ADDRESS",
      "outputs": [
        {
          "internalType": "address",
          "name": "",
          "type": "address"
        }
      ],
      "stateMutability": "view",
      "type": "function"
    },
    {
      "inputs": [],
      "name": "FN_NUM_GET_CONFIG_VARIABLE_STRING",
      "outputs": [
        {
          "internalType": "address",
          "name": "",
          "type": "address"
        }
      ],
      "stateMutability": "view",
      "type": "function"
    },
    {
      "inputs": [],
      "name": "FN_NUM_GET_CONFIG_VARIABLE_UINT256",
      "outputs": [
        {
          "internalType": "address",
          "name": "",
          "type": "address"
        }
      ],
      "stateMutability": "view",
      "type": "function"
    },
    {
      "inputs": [
        {
          "components": [
            {
              "internalType": "uint256",
              "name": "cid",
              "type": "uint256"
            },
            {
              "internalType": "string",
              "name": "uri",
              "type": "string"
            },
            {
              "internalType": "string",
              "name": "encoding",
              "type": "string"
            },
            {
              "internalType": "string",
              "name": "ethApi",
              "type": "string"
            },
            {
              "internalType": "string",
              "name": "params",
              "type": "string"
            },
            {
              "internalType": "string[]",
              "name": "jsps",
              "type": "string[]"
            },
            {
              "internalType": "uint256[]",
              "name": "trims",
              "type": "uint256[]"
            },
            {
              "internalType": "string",
              "name": "post",
              "type": "string"
            },
            {
              "internalType": "uint256",
              "name": "time",
              "type": "uint256"
            },
            {
              "internalType": "string[]",
              "name": "rslts",
              "type": "string[]"
            },
            {
              "components": [
                {
                  "internalType": "uint8",
                  "name": "v",
                  "type": "uint8"
                },
                {
                  "internalType": "bytes32",
                  "name": "r",
                  "type": "bytes32"
                },
                {
                  "internalType": "bytes32",
                  "name": "s",
                  "type": "bytes32"
                }
              ],
              "internalType": "struct IVerifier.Signature[]",
              "name": "sigs",
              "type": "tuple[]"
            }
          ],
          "internalType": "struct IOracle.OracleResponse",
          "name": "response",
          "type": "tuple"
        }
      ],
      "name": "combineOracleResponse",
      "outputs": [
        {
          "internalType": "string",
          "name": "wholeData",
          "type": "string"
        }
      ],
      "stateMutability": "pure",
      "type": "function"
    },
    {
      "inputs": [
        {
          "internalType": "uint256",
          "name": "nodeIndex",
          "type": "uint256"
        }
      ],
      "name": "getNodeAddress",
      "outputs": [
        {
          "internalType": "address",
          "name": "",
          "type": "address"
        }
      ],
      "stateMutability": "view",
      "type": "function"
    },
    {
      "inputs": [],
      "name": "getNumberOfNodesInSchain",
      "outputs": [
        {
          "internalType": "uint256",
          "name": "",
          "type": "uint256"
        }
      ],
      "stateMutability": "view",
      "type": "function"
    },
    {
      "inputs": [],
      "name": "getTrustNumberOfNodes",
      "outputs": [
        {
          "internalType": "uint256",
          "name": "",
          "type": "uint256"
        }
      ],
      "stateMutability": "view",
      "type": "function"
    },
    {
      "inputs": [],
      "name": "initialize",
      "outputs": [],
      "stateMutability": "nonpayable",
      "type": "function"
    },
    {
      "inputs": [
        {
          "internalType": "bytes32",
          "name": "hashedMessage",
          "type": "bytes32"
        },
        {
          "components": [
            {
              "internalType": "uint8",
              "name": "v",
              "type": "uint8"
            },
            {
              "internalType": "bytes32",
              "name": "r",
              "type": "bytes32"
            },
            {
              "internalType": "bytes32",
              "name": "s",
              "type": "bytes32"
            }
          ],
          "internalType": "struct IVerifier.Signature[]",
          "name": "signatures",
          "type": "tuple[]"
        }
      ],
      "name": "verifyArrayOfSignatures",
      "outputs": [
        {
          "internalType": "bool",
          "name": "",
          "type": "bool"
        }
      ],
      "stateMutability": "view",
      "type": "function"
    },
    {
      "inputs": [
        {
          "components": [
            {
              "internalType": "uint256",
              "name": "cid",
              "type": "uint256"
            },
            {
              "internalType": "string",
              "name": "uri",
              "type": "string"
            },
            {
              "internalType": "string",
              "name": "encoding",
              "type": "string"
            },
            {
              "internalType": "string",
              "name": "ethApi",
              "type": "string"
            },
            {
              "internalType": "string",
              "name": "params",
              "type": "string"
            },
            {
              "internalType": "string[]",
              "name": "jsps",
              "type": "string[]"
            },
            {
              "internalType": "uint256[]",
              "name": "trims",
              "type": "uint256[]"
            },
            {
              "internalType": "string",
              "name": "post",
              "type": "string"
            },
            {
              "internalType": "uint256",
              "name": "time",
              "type": "uint256"
            },
            {
              "internalType": "string[]",
              "name": "rslts",
              "type": "string[]"
            },
            {
              "components": [
                {
                  "internalType": "uint8",
                  "name": "v",
                  "type": "uint8"
                },
                {
                  "internalType": "bytes32",
                  "name": "r",
                  "type": "bytes32"
                },
                {
                  "internalType": "bytes32",
                  "name": "s",
                  "type": "bytes32"
                }
              ],
              "internalType": "struct IVerifier.Signature[]",
              "name": "sigs",
              "type": "tuple[]"
            }
          ],
          "internalType": "struct IOracle.OracleResponse",
          "name": "response",
          "type": "tuple"
        }
      ],
      "name": "verifyOracleResponse",
      "outputs": [
        {
          "internalType": "bool",
          "name": "",
          "type": "bool"
        }
      ],
      "stateMutability": "view",
      "type": "function"
    },
    {
      "inputs": [
        {
          "internalType": "uint256",
          "name": "nodeIndex",
          "type": "uint256"
        },
        {
          "internalType": "bytes32",
          "name": "hashedMessage",
          "type": "bytes32"
        },
        {
          "components": [
            {
              "internalType": "uint8",
              "name": "v",
              "type": "uint8"
            },
            {
              "internalType": "bytes32",
              "name": "r",
              "type": "bytes32"
            },
            {
              "internalType": "bytes32",
              "name": "s",
              "type": "bytes32"
            }
          ],
          "internalType": "struct IVerifier.Signature",
          "name": "signature",
          "type": "tuple"
        }
      ],
      "name": "verifySignature",
      "outputs": [
        {
          "internalType": "bool",
          "name": "",
          "type": "bool"
        }
      ],
      "stateMutability": "view",
      "type": "function"
    }
  ],
  "bytecode": "0x608060405234801561001057600080fd5b50611cb5806100206000396000f3fe608060405234801561001057600080fd5b50600436106100a95760003560e01c80638e372c15116100715780638e372c151461012957806396ff22ba14610131578063a113f65714610144578063ab2a58531461014c578063c3becd8314610154578063e2ea8f7a1461017457600080fd5b80632c61a469146100ae578063446e847f146100c95780636703afa4146100f45780636ae7ff60146101175780638129fc1c1461011f575b600080fd5b6100b6610187565b6040519081526020015b60405180910390f35b6100dc6100d7366004611154565b6101b1565b6040516001600160a01b0390911681526020016100c0565b610107610102366004611438565b6101ee565b60405190151581526020016100c0565b6100dc601481565b61012761033c565b005b6100b66103a9565b61010761013f3660046115e1565b6103ee565b6100dc601581565b6100dc601381565b610167610162366004611438565b61042c565b6040516100c09190611647565b61010761018236600461167a565b610470565b6000806101926103a9565b905060036101a18260026116d7565b6101ab9190611705565b91505090565b6000806101bd8361055b565b6040516020016101cd9190611719565b60405160208183030381529060405290506101e78161065c565b9392505050565b6000808260600151511180610240575060008260a001515111801561021d5750816101200151518260a0015151145b8015610240575060c08201515115806102405750816101200151518260c0015151145b6102915760405162461bcd60e51b815260206004820152601b60248201527f496e636f7272656374206e756d626572206f6620726573756c7473000000000060448201526064015b60405180910390fd5b6102996103a9565b82610140015151146102ed5760405162461bcd60e51b815260206004820152601c60248201527f496e76616c6964206c656e677468206f66207369676e617475726573000000006044820152606401610288565b60006102f88361042c565b905060008160405160200161030d919061176f565b60405160208183030381529060405280519060200120905061033481856101400151610470565b949350505050565b60006103486001610740565b90508015610360576000805461ff0019166101001790555b80156103a6576000805461ff0019169055604051600181527f7f26b83ff96e1f2b6a682f133852f6798a09c465da95921460cefb38474024989060200160405180910390a15b50565b60006103e96040518060400160405280601f81526020017f736b616c65436f6e6669672e73436861696e2e6e6f6465732e6c656e677468008152506107c8565b905090565b6000806103fa856101b1565b83516020850151604086015192935061041692879291906108ac565b6001600160a01b03918216911614949350505050565b606061046a826000015183602001518460400151856060015186608001518760a001518860c001518960e001518a61010001518b61012001516108d4565b92915050565b600080805b8351811015610549578381815181106104905761049061178b565b60200260200101516000015160ff1660001415806104ce57506000801b8482815181106104bf576104bf61178b565b60200260200101516020015114155b806104f957506000801b8482815181106104ea576104ea61178b565b60200260200101516040015114155b8015610524575061052481868684815181106105175761051761178b565b60200260200101516103ee565b156105375781610533816117a1565b9250505b80610541816117a1565b915050610475565b50610552610187565b11159392505050565b6060816000036105825750506040805180820190915260018152600360fc1b602082015290565b8160005b81156105ac5780610596816117a1565b91506105a59050600a83611705565b9150610586565b60008167ffffffffffffffff8111156105c7576105c761116d565b6040519080825280601f01601f1916602001820160405280156105f1576020820181803683370190505b5090505b8415610334576106066001836117ba565b9150610613600a866117d1565b61061e9060306116d7565b60f81b8183815181106106335761063361178b565b60200101906001600160f81b031916908160001a905350610655600a86611705565b94506105f5565b600080600060146001600160a01b03168451856040516020016106809291906117e5565b60408051601f198184030181529082905261069a9161176f565b600060405180830381855afa9150503d80600081146106d5576040519150601f19603f3d011682016040523d82523d6000602084013e6106da565b606091505b50915091508161072c5760405162461bcd60e51b815260206004820152601960248201527f47657420636f6e6669672061646472657373206661696c6564000000000000006044820152606401610288565b80806020019051810190610334919061180b565b60008054610100900460ff1615610787578160ff1660011480156107635750303b155b61077f5760405162461bcd60e51b815260040161028890611834565b506000919050565b60005460ff8084169116106107ae5760405162461bcd60e51b815260040161028890611834565b506000805460ff191660ff92909216919091179055600190565b600080600060136001600160a01b03168451856040516020016107ec9291906117e5565b60408051601f19818403018152908290526108069161176f565b600060405180830381855afa9150503d8060008114610841576040519150601f19603f3d011682016040523d82523d6000602084013e610846565b606091505b5091509150816108985760405162461bcd60e51b815260206004820152601960248201527f47657420636f6e6669672075696e74323536206661696c6564000000000000006044820152606401610288565b808060200190518101906103349190611882565b60008060006108bd87878787610b5b565b915091506108ca81610c48565b5095945050505050565b606060006108e18c61055b565b8b8b6040516020016108f59392919061189b565b60408051601f1981840301815260208301909152600082528a5190925015610928576109218a8a610dfe565b9050610936565b610933888888610eb6565b90505b60006109418661055b565b6040516020016109519190611931565b60408051601f1981840301815282820190915260098252682272736c7473223a5b60b81b6020830152915060005b6001875161098d91906117ba565b811015610a6b57816109d48883815181106109aa576109aa61178b565b6020026020010151604051806040016040528060048152602001631b9d5b1b60e21b8152506110fb565b156109fc57604051806040016040528060058152602001641b9d5b1b0b60da1b815250610a36565b878281518110610a0e57610a0e61178b565b6020026020010151604051602001610a26919061196c565b6040516020818303038152906040525b604051602001610a479291906119a2565b60405160208183030381529060405291508080610a63906117a1565b91505061097f565b5080610a8f8760018951610a7f91906117ba565b815181106109aa576109aa61178b565b15610ab857604051806040016040528060068152602001651b9d5b1b174b60d21b815250610aff565b8660018851610ac791906117ba565b81518110610ad757610ad761178b565b6020026020010151604051602001610aef91906119d1565b6040516020818303038152906040525b604051602001610b109291906119a2565b604051602081830303815290604052905083838383604051602001610b389493929190611a08565b6040516020818303038152906040529450505050509a9950505050505050505050565b6000807f7fffffffffffffffffffffffffffffff5d576e7357a4501ddfe92f46681b20a0831115610b925750600090506003610c3f565b8460ff16601b14158015610baa57508460ff16601c14155b15610bbb5750600090506004610c3f565b6040805160008082526020820180845289905260ff881692820192909252606081018690526080810185905260019060a0016020604051602081039080840390855afa158015610c0f573d6000803e3d6000fd5b5050604051601f1901519150506001600160a01b038116610c3857600060019250925050610c3f565b9150600090505b94509492505050565b6000816004811115610c5c57610c5c611a5f565b03610c645750565b6001816004811115610c7857610c78611a5f565b03610cc55760405162461bcd60e51b815260206004820152601860248201527f45434453413a20696e76616c6964207369676e617475726500000000000000006044820152606401610288565b6002816004811115610cd957610cd9611a5f565b03610d265760405162461bcd60e51b815260206004820152601f60248201527f45434453413a20696e76616c6964207369676e6174757265206c656e677468006044820152606401610288565b6003816004811115610d3a57610d3a611a5f565b03610d925760405162461bcd60e51b815260206004820152602260248201527f45434453413a20696e76616c6964207369676e6174757265202773272076616c604482015261756560f01b6064820152608401610288565b6004816004811115610da657610da6611a5f565b036103a65760405162461bcd60e51b815260206004820152602260248201527f45434453413a20696e76616c6964207369676e6174757265202776272076616c604482015261756560f01b6064820152608401610288565b6060600083604051602001610e139190611a75565b6040516020818303038152906040529050600084511115610e515783604051602001610e3f9190611a75565b60405160208183030381529060405290505b604080516020810190915260008152835115610e8a5783604051602001610e789190611ab4565b60405160208183030381529060405290505b8181604051602001610e9d9291906119a2565b6040516020818303038152906040529250505092915050565b60408051602081019091526000815283516060919015610fa45750604080518082019091526008815267226a737073223a5b60c01b602082015260005b60018651610f0191906117ba565b811015610f585781868281518110610f1b57610f1b61178b565b6020026020010151604051602001610f34929190611af1565b60405160208183030381529060405291508080610f50906117a1565b915050610ef3565b50808560018751610f6991906117ba565b81518110610f7957610f7961178b565b6020026020010151604051602001610f92929190611b3c565b60405160208183030381529060405290505b6040805160208101909152600081528451156110925750604080518082019091526009815268227472696d73223a5b60b81b602082015260005b60018651610fec91906117ba565b81101561104b57816110168783815181106110095761100961178b565b602002602001015161055b565b604051602001611027929190611b88565b60405160208183030381529060405291508080611043906117a1565b915050610fde565b508061106f866001885161105f91906117ba565b815181106110095761100961178b565b604051602001611080929190611bc3565b60405160208183030381529060405290505b6040805160208101909152600081528451156110cb57846040516020016110b99190611bff565b60405160208183030381529060405290505b8282826040516020016110e093929190611c3c565b60405160208183030381529060405293505050509392505050565b60008160405160200161110e919061176f565b6040516020818303038152906040528051906020012083604051602001611135919061176f565b6040516020818303038152906040528051906020012014905092915050565b60006020828403121561116657600080fd5b5035919050565b634e487b7160e01b600052604160045260246000fd5b604051610160810167ffffffffffffffff811182821017156111a7576111a761116d565b60405290565b604051601f8201601f1916810167ffffffffffffffff811182821017156111d6576111d661116d565b604052919050565b600082601f8301126111ef57600080fd5b813567ffffffffffffffff8111156112095761120961116d565b61121c601f8201601f19166020016111ad565b81815284602083860101111561123157600080fd5b816020850160208301376000918101602001919091529392505050565b600067ffffffffffffffff8211156112685761126861116d565b5060051b60200190565b600082601f83011261128357600080fd5b813560206112986112938361124e565b6111ad565b82815260059290921b840181019181810190868411156112b757600080fd5b8286015b848110156112f757803567ffffffffffffffff8111156112db5760008081fd5b6112e98986838b01016111de565b8452509183019183016112bb565b509695505050505050565b600082601f83011261131357600080fd5b813560206113236112938361124e565b82815260059290921b8401810191818101908684111561134257600080fd5b8286015b848110156112f75780358352918301918301611346565b60006060828403121561136f57600080fd5b6040516060810181811067ffffffffffffffff821117156113925761139261116d565b604052905080823560ff811681146113a957600080fd5b8082525060208301356020820152604083013560408201525092915050565b600082601f8301126113d957600080fd5b813560206113e96112938361124e565b8281526060928302850182019282820191908785111561140857600080fd5b8387015b8581101561142b5761141e898261135d565b845292840192810161140c565b5090979650505050505050565b60006020828403121561144a57600080fd5b813567ffffffffffffffff8082111561146257600080fd5b90830190610160828603121561147757600080fd5b61147f611183565b8235815260208301358281111561149557600080fd5b6114a1878286016111de565b6020830152506040830135828111156114b957600080fd5b6114c5878286016111de565b6040830152506060830135828111156114dd57600080fd5b6114e9878286016111de565b60608301525060808301358281111561150157600080fd5b61150d878286016111de565b60808301525060a08301358281111561152557600080fd5b61153187828601611272565b60a08301525060c08301358281111561154957600080fd5b61155587828601611302565b60c08301525060e08301358281111561156d57600080fd5b611579878286016111de565b60e0830152506101008381013590820152610120808401358381111561159e57600080fd5b6115aa88828701611272565b82840152505061014080840135838111156115c457600080fd5b6115d0888287016113c8565b918301919091525095945050505050565b600080600060a084860312156115f657600080fd5b833592506020840135915061160e856040860161135d565b90509250925092565b60005b8381101561163257818101518382015260200161161a565b83811115611641576000848401525b50505050565b6020815260008251806020840152611666816040850160208701611617565b601f01601f19169190910160400192915050565b6000806040838503121561168d57600080fd5b82359150602083013567ffffffffffffffff8111156116ab57600080fd5b6116b7858286016113c8565b9150509250929050565b634e487b7160e01b600052601160045260246000fd5b600082198211156116ea576116ea6116c1565b500190565b634e487b7160e01b600052601260045260246000fd5b600082611714576117146116ef565b500490565b7f736b616c65436f6e6669672e73436861696e2e6e6f6465732e5b00000000000081526000825161175181601a850160208701611617565b662e9737bbb732b960c91b601a939091019283015250602101919050565b60008251611781818460208701611617565b9190910192915050565b634e487b7160e01b600052603260045260246000fd5b6000600182016117b3576117b36116c1565b5060010190565b6000828210156117cc576117cc6116c1565b500390565b6000826117e0576117e06116ef565b500690565b828152600082516117fd816020850160208701611617565b919091016020019392505050565b60006020828403121561181d57600080fd5b81516001600160a01b03811681146101e757600080fd5b6020808252602e908201527f496e697469616c697a61626c653a20636f6e747261637420697320616c72656160408201526d191e481a5b9a5d1a585b1a5e995960921b606082015260800190565b60006020828403121561189457600080fd5b5051919050565b663d9131b4b2111d60c91b815283516000906118be816007850160208901611617565b6716113ab934911d1160c11b60079184019182015284516118e681600f840160208901611617565b6d11161132b731b7b234b733911d1160911b600f9290910191820152835161191581601d840160208801611617565b61088b60f21b601d9290910191820152601f0195945050505050565b66113a34b6b2911d60c91b81528151600090611954816007850160208701611617565b600b60fa1b6007939091019283015250600801919050565b601160f91b81528151600090611989816001850160208701611617565b61088b60f21b6001939091019283015250600301919050565b600083516119b4818460208801611617565b8351908301906119c8818360208801611617565b01949350505050565b601160f91b815281516000906119ee816001850160208701611617565b6208974b60ea1b6001939091019283015250600401919050565b60008551611a1a818460208a01611617565b855190830190611a2e818360208a01611617565b8551910190611a41818360208901611617565b8451910190611a54818360208801611617565b019695505050505050565b634e487b7160e01b600052602160045260246000fd5b691132ba3420b834911d1160b11b81528151600090611a9b81600a850160208701611617565b61088b60f21b600a939091019283015250600c01919050565b68113830b930b6b9911d60b91b81528151600090611ad9816009850160208701611617565b600b60fa1b6009939091019283015250600a01919050565b60008351611b03818460208801611617565b601160f91b9083019081528351611b21816001840160208801611617565b61088b60f21b60019290910191820152600301949350505050565b60008351611b4e818460208801611617565b601160f91b9083019081528351611b6c816001840160208801611617565b6208974b60ea1b60019290910191820152600401949350505050565b60008351611b9a818460208801611617565b835190830190611bae818360208801611617565b600b60fa1b9101908152600101949350505050565b60008351611bd5818460208801611617565b835190830190611be9818360208801611617565b61174b60f21b9101908152600201949350505050565b67113837b9ba111d1160c11b81528151600090611c23816008850160208701611617565b61088b60f21b6008939091019283015250600a01919050565b60008451611c4e818460208901611617565b845190830190611c62818360208901611617565b8451910190611c75818360208801611617565b019594505050505056fea26469706673582212202007623b6ee750229892b7f9324dd4bb1bd94ee3c9d856332ee22074d2863ace64736f6c634300080d0033",
  "linkReferences": {},
  "deployedLinkReferences": {}
}