{
  "_format": "hh-sol-artifact-1",
  "contractName": "Escrow",
  "sourceName": "contracts/Escrow.sol",
  "abi": [
    {
      "inputs": [
        {
          "internalType": "address",
          "name": "_token",
          "type": "address"
        },
        {
          "internalType": "address payable",
          "name": "_canceler",
          "type": "address"
        },
        {
          "internalType": "uint256",
          "name": "_duration",
          "type": "uint256"
        },
        {
          "internalType": "address[]",
          "name": "_handlers",
          "type": "address[]"
        }
      ],
      "stateMutability": "nonpayable",
      "type": "constructor"
    },
    {
      "anonymous": false,
      "inputs": [
        {
          "indexed": true,
          "internalType": "uint256",
          "name": "_txId",
          "type": "uint256"
        },
        {
          "indexed": false,
          "internalType": "address[]",
          "name": "_recipients",
          "type": "address[]"
        },
        {
          "indexed": false,
          "internalType": "uint256[]",
          "name": "_amounts",
          "type": "uint256[]"
        },
        {
          "indexed": false,
          "internalType": "bool",
          "name": "_isPartial",
          "type": "bool"
        }
      ],
      "name": "BulkTransfer",
      "type": "event"
    },
    {
      "anonymous": false,
      "inputs": [],
      "name": "Cancelled",
      "type": "event"
    },
    {
      "anonymous": false,
      "inputs": [],
      "name": "Completed",
      "type": "event"
    },
    {
      "anonymous": false,
      "inputs": [
        {
          "indexed": false,
          "internalType": "string",
          "name": "_url",
          "type": "string"
        },
        {
          "indexed": false,
          "internalType": "string",
          "name": "_hash",
          "type": "string"
        }
      ],
      "name": "IntermediateStorage",
      "type": "event"
    },
    {
      "anonymous": false,
      "inputs": [
        {
          "indexed": false,
          "internalType": "string",
          "name": "manifest",
          "type": "string"
        },
        {
          "indexed": false,
          "internalType": "string",
          "name": "hash",
          "type": "string"
        }
      ],
      "name": "Pending",
      "type": "event"
    },
    {
      "anonymous": false,
      "inputs": [
        {
          "indexed": false,
          "internalType": "address",
          "name": "_handler",
          "type": "address"
        }
      ],
      "name": "TrustedHandlerAdded",
      "type": "event"
    },
    {
      "inputs": [],
      "name": "abort",
      "outputs": [],
      "stateMutability": "nonpayable",
      "type": "function"
    },
    {
      "inputs": [
        {
          "internalType": "address[]",
          "name": "_handlers",
          "type": "address[]"
        }
      ],
      "name": "addTrustedHandlers",
      "outputs": [],
      "stateMutability": "nonpayable",
      "type": "function"
    },
    {
      "inputs": [
        {
          "internalType": "address",
          "name": "",
          "type": "address"
        }
      ],
      "name": "areTrustedHandlers",
      "outputs": [
        {
          "internalType": "bool",
          "name": "",
          "type": "bool"
        }
      ],
      "stateMutability": "view",
      "type": "function"
    },
    {
      "inputs": [
        {
          "internalType": "address[]",
          "name": "_recipients",
          "type": "address[]"
        },
        {
          "internalType": "uint256[]",
          "name": "_amounts",
          "type": "uint256[]"
        },
        {
          "internalType": "string",
          "name": "_url",
          "type": "string"
        },
        {
          "internalType": "string",
          "name": "_hash",
          "type": "string"
        },
        {
          "internalType": "uint256",
          "name": "_txId",
          "type": "uint256"
        }
      ],
      "name": "bulkPayOut",
      "outputs": [],
      "stateMutability": "nonpayable",
      "type": "function"
    },
    {
      "inputs": [],
      "name": "cancel",
      "outputs": [
        {
          "internalType": "bool",
          "name": "",
          "type": "bool"
        }
      ],
      "stateMutability": "nonpayable",
      "type": "function"
    },
    {
      "inputs": [],
      "name": "canceler",
      "outputs": [
        {
          "internalType": "address payable",
          "name": "",
          "type": "address"
        }
      ],
      "stateMutability": "view",
      "type": "function"
    },
    {
      "inputs": [],
      "name": "complete",
      "outputs": [],
      "stateMutability": "nonpayable",
      "type": "function"
    },
    {
      "inputs": [],
      "name": "duration",
      "outputs": [
        {
          "internalType": "uint256",
          "name": "",
          "type": "uint256"
        }
      ],
      "stateMutability": "view",
      "type": "function"
    },
    {
      "inputs": [],
      "name": "finalResultsHash",
      "outputs": [
        {
          "internalType": "string",
          "name": "",
          "type": "string"
        }
      ],
      "stateMutability": "view",
      "type": "function"
    },
    {
      "inputs": [],
      "name": "finalResultsUrl",
      "outputs": [
        {
          "internalType": "string",
          "name": "",
          "type": "string"
        }
      ],
      "stateMutability": "view",
      "type": "function"
    },
    {
      "inputs": [],
      "name": "getBalance",
      "outputs": [
        {
          "internalType": "uint256",
          "name": "",
          "type": "uint256"
        }
      ],
      "stateMutability": "view",
      "type": "function"
    },
    {
      "inputs": [],
      "name": "intermediateResultsUrl",
      "outputs": [
        {
          "internalType": "string",
          "name": "",
          "type": "string"
        }
      ],
      "stateMutability": "view",
      "type": "function"
    },
    {
      "inputs": [],
      "name": "launcher",
      "outputs": [
        {
          "internalType": "address",
          "name": "",
          "type": "address"
        }
      ],
      "stateMutability": "view",
      "type": "function"
    },
    {
      "inputs": [],
      "name": "manifestHash",
      "outputs": [
        {
          "internalType": "string",
          "name": "",
          "type": "string"
        }
      ],
      "stateMutability": "view",
      "type": "function"
    },
    {
      "inputs": [],
      "name": "manifestUrl",
      "outputs": [
        {
          "internalType": "string",
          "name": "",
          "type": "string"
        }
      ],
      "stateMutability": "view",
      "type": "function"
    },
    {
      "inputs": [],
      "name": "recordingOracle",
      "outputs": [
        {
          "internalType": "address",
          "name": "",
          "type": "address"
        }
      ],
      "stateMutability": "view",
      "type": "function"
    },
    {
      "inputs": [],
      "name": "recordingOracleFeePercentage",
      "outputs": [
        {
          "internalType": "uint8",
          "name": "",
          "type": "uint8"
        }
      ],
      "stateMutability": "view",
      "type": "function"
    },
    {
      "inputs": [],
      "name": "reputationOracle",
      "outputs": [
        {
          "internalType": "address",
          "name": "",
          "type": "address"
        }
      ],
      "stateMutability": "view",
      "type": "function"
    },
    {
      "inputs": [],
      "name": "reputationOracleFeePercentage",
      "outputs": [
        {
          "internalType": "uint8",
          "name": "",
          "type": "uint8"
        }
      ],
      "stateMutability": "view",
      "type": "function"
    },
    {
      "inputs": [
        {
          "internalType": "address",
          "name": "_reputationOracle",
          "type": "address"
        },
        {
          "internalType": "address",
          "name": "_recordingOracle",
          "type": "address"
        },
        {
          "internalType": "uint8",
          "name": "_reputationOracleFeePercentage",
          "type": "uint8"
        },
        {
          "internalType": "uint8",
          "name": "_recordingOracleFeePercentage",
          "type": "uint8"
        },
        {
          "internalType": "string",
          "name": "_url",
          "type": "string"
        },
        {
          "internalType": "string",
          "name": "_hash",
          "type": "string"
        }
      ],
      "name": "setup",
      "outputs": [],
      "stateMutability": "nonpayable",
      "type": "function"
    },
    {
      "inputs": [],
      "name": "status",
      "outputs": [
        {
          "internalType": "enum IEscrow.EscrowStatuses",
          "name": "",
          "type": "uint8"
        }
      ],
      "stateMutability": "view",
      "type": "function"
    },
    {
      "inputs": [
        {
          "internalType": "string",
          "name": "_url",
          "type": "string"
        },
        {
          "internalType": "string",
          "name": "_hash",
          "type": "string"
        }
      ],
      "name": "storeResults",
      "outputs": [],
      "stateMutability": "nonpayable",
      "type": "function"
    },
    {
      "inputs": [],
      "name": "token",
      "outputs": [
        {
          "internalType": "address",
          "name": "",
          "type": "address"
        }
      ],
      "stateMutability": "view",
      "type": "function"
    }
  ],
  "bytecode": "0x60806040523480156200001157600080fd5b506040516200368a3803806200368a833981016040819052620000349162000426565b600160005560408051808201909152601481527f457363726f773a207a65726f206164647265737300000000000000000000000060208201526001600160a01b038516620000a05760405162461bcd60e51b81526004016200009791906200052e565b60405180910390fd5b5060408051808201909152601481527f457363726f773a207a65726f206164647265737300000000000000000000000060208201526001600160a01b038416620000ff5760405162461bcd60e51b81526004016200009791906200052e565b50600580546001600160a01b0319166001600160a01b0386161790556001805460ff191690556200013d8242620001ac602090811b62001eb517901c565b600b55600380546001600160a01b031990811633908117909255600480546001600160a01b0387169216821790556000908152600c6020526040808220805460ff19908116600190811790925593835291208054909216179055620001a28162000216565b50505050620005eb565b600080620001bb83856200059c565b9050838110156200020f5760405162461bcd60e51b815260206004820152601b60248201527f536166654d6174683a206164646974696f6e206f766572666c6f770000000000604482015260640162000097565b9392505050565b336000908152600c602052604090205460ff16620002775760405162461bcd60e51b815260206004820152601b60248201527f416464726573732063616c6c696e67206e6f7420747275737465640000000000604482015260640162000097565b60005b8151811015620003e15760006001600160a01b0316828281518110620002a457620002a4620005b7565b60200260200101516001600160a01b031614156040518060400160405280601481526020017f457363726f773a207a65726f2061646472657373000000000000000000000000815250906200030e5760405162461bcd60e51b81526004016200009791906200052e565b506001600c60008484815181106200032a576200032a620005b7565b60200260200101516001600160a01b03166001600160a01b0316815260200190815260200160002060006101000a81548160ff0219169083151502179055507fad3769ac0c1a91ee9dcf369f6d2989f91572b6f876933bbc82ab85f6b969a07a8282815181106200039f576200039f620005b7565b6020026020010151604051620003c491906001600160a01b0391909116815260200190565b60405180910390a180620003d881620005cd565b9150506200027a565b5050565b6001600160a01b0381168114620003fb57600080fd5b50565b80516200040b81620003e5565b919050565b634e487b7160e01b600052604160045260246000fd5b600080600080608085870312156200043d57600080fd5b84516200044a81620003e5565b809450506020808601516200045f81620003e5565b6040870151606088015191955093506001600160401b03808211156200048457600080fd5b818801915088601f8301126200049957600080fd5b815181811115620004ae57620004ae62000410565b8060051b604051601f19603f83011681018181108582111715620004d657620004d662000410565b60405291825284820192508381018501918b831115620004f557600080fd5b938501935b828510156200051e576200050e85620003fe565b84529385019392850192620004fa565b989b979a50959850505050505050565b600060208083528351808285015260005b818110156200055d578581018301518582016040015282016200053f565b8181111562000570576000604083870101525b50601f01601f1916929092016040019392505050565b634e487b7160e01b600052601160045260246000fd5b60008219821115620005b257620005b262000586565b500190565b634e487b7160e01b600052603260045260246000fd5b6000600019821415620005e457620005e462000586565b5060010190565b61308f80620005fb6000396000f3fe608060405234801561001057600080fd5b506004361061018d5760003560e01c80639753e432116100e3578063ba5fed341161008c578063f17171e911610066578063f17171e914610361578063fad844c114610384578063fc0c546a146103a957600080fd5b8063ba5fed341461031c578063c479bbf814610324578063ea8a1af01461034957600080fd5b80639eb262f3116100bd5780639eb262f3146102e3578063a96014b6146102f6578063b63d1a001461030957600080fd5b80639753e4321461029b578063992d454d146102bb5780639c48b102146102db57600080fd5b8063337f3f3211610145578063522e11771161011f578063522e117714610248578063697e4b871461025057806378c624201461026357600080fd5b8063337f3f321461022e57806335a063b41461023657806343aba9c21461024057600080fd5b806312065fe01161017657806312065fe0146101c757806316eebd1e146101cf578063200d2ed21461021457600080fd5b80630f46c9aa146101925780630fb5a6b4146101b0575b600080fd5b61019a6103c9565b6040516101a791906127f6565b60405180910390f35b6101b9600b5481565b6040519081526020016101a7565b6101b9610457565b6003546101ef9073ffffffffffffffffffffffffffffffffffffffff1681565b60405173ffffffffffffffffffffffffffffffffffffffff90911681526020016101a7565b6001546102219060ff1681565b6040516101a79190612838565b61019a61059e565b61023e6105ab565b005b61019a61075d565b61023e61076a565b61023e61025e366004612985565b61094b565b600454610289907501000000000000000000000000000000000000000000900460ff1681565b60405160ff90911681526020016101a7565b6002546101ef9073ffffffffffffffffffffffffffffffffffffffff1681565b6004546101ef9073ffffffffffffffffffffffffffffffffffffffff1681565b61019a610c38565b61023e6102f1366004612aa8565b610c45565b61023e610304366004612aee565b610e76565b61023e610317366004612b93565b611317565b61019a611c29565b6004546102899074010000000000000000000000000000000000000000900460ff1681565b610351611c36565b60405190151581526020016101a7565b61035161036f366004612c9c565b600c6020526000908152604090205460ff1681565b6001546101ef90610100900473ffffffffffffffffffffffffffffffffffffffff1681565b6005546101ef9073ffffffffffffffffffffffffffffffffffffffff1681565b600a80546103d690612cb7565b80601f016020809104026020016040519081016040528092919081815260200182805461040290612cb7565b801561044f5780601f106104245761010080835404028352916020019161044f565b820191906000526020600020905b81548152906001019060200180831161043257829003601f168201915b505050505081565b6005546040513060248201526000918291829173ffffffffffffffffffffffffffffffffffffffff16907f70a08231b98ef4ca268c9cc3f6b4590e4bfec28280db06bb5d45e689f2a360be90604401604080517fffffffffffffffffffffffffffffffffffffffffffffffffffffffffffffffe08184030181529181526020820180517bffffffffffffffffffffffffffffffffffffffffffffffffffffffff167fffffffff0000000000000000000000000000000000000000000000000000000090941693909317909252905161052f9190612d0b565b600060405180830381855afa9150503d806000811461056a576040519150601f19603f3d011682016040523d82523d6000602084013e61056f565b606091505b50915091508115610595578080602001905181019061058e9190612d27565b9250505090565b60009250505090565b600780546103d690612cb7565b336000908152600c602052604090205460ff16610629576040517f08c379a000000000000000000000000000000000000000000000000000000000815260206004820152601b60248201527f416464726573732063616c6c696e67206e6f742074727573746564000000000060448201526064015b60405180910390fd5b600460015460ff16600581111561064257610642612809565b14156106aa576040517f08c379a000000000000000000000000000000000000000000000000000000000815260206004820152601f60248201527f457363726f7720696e20436f6d706c65746520737461747573207374617465006044820152606401610620565b600360015460ff1660058111156106c3576106c3612809565b141561072b576040517f08c379a000000000000000000000000000000000000000000000000000000000815260206004820152601b60248201527f457363726f7720696e20506169642073746174757320737461746500000000006044820152606401610620565b610733610457565b1561074257610740611c36565b505b60045473ffffffffffffffffffffffffffffffffffffffff16ff5b600980546103d690612cb7565b42600b54116107d5576040517f08c379a000000000000000000000000000000000000000000000000000000000815260206004820152601060248201527f436f6e74726163742065787069726564000000000000000000000000000000006044820152606401610620565b336000908152600c602052604090205460ff168061080f5750600154610100900473ffffffffffffffffffffffffffffffffffffffff1633145b610875576040517f08c379a000000000000000000000000000000000000000000000000000000000815260206004820152601b60248201527f416464726573732063616c6c696e67206e6f74207472757374656400000000006044820152606401610620565b600360015460ff16600581111561088e5761088e612809565b146108f5576040517f08c379a000000000000000000000000000000000000000000000000000000000815260206004820152601860248201527f457363726f77206e6f7420696e205061696420737461746500000000000000006044820152606401610620565b600180547fffffffffffffffffffffffffffffffffffffffffffffffffffffffffffffff001660041790556040517fe06452d00b2b58f14a1fa6d499ea982ff93ea827ae700ea9ba03f4daddc94bc190600090a1565b336000908152600c602052604090205460ff1680610980575060025473ffffffffffffffffffffffffffffffffffffffff1633145b6109e6576040517f08c379a000000000000000000000000000000000000000000000000000000000815260206004820152601b60248201527f416464726573732063616c6c696e67206e6f74207472757374656400000000006044820152606401610620565b42600b5411610a51576040517f08c379a000000000000000000000000000000000000000000000000000000000815260206004820152601060248201527f436f6e74726163742065787069726564000000000000000000000000000000006044820152606401610620565b6001805460ff166005811115610a6957610a69612809565b1480610a8b5750600260015460ff166005811115610a8957610a89612809565b145b610b17576040517f08c379a000000000000000000000000000000000000000000000000000000000815260206004820152602d60248201527f457363726f77206e6f7420696e2050656e64696e67206f72205061727469616c60448201527f20737461747573207374617465000000000000000000000000000000000000006064820152608401610620565b8151610b7f576040517f08c379a000000000000000000000000000000000000000000000000000000000815260206004820152601260248201527f55524c2063616e277420626520656d70747900000000000000000000000000006044820152606401610620565b8051610be7576040517f08c379a000000000000000000000000000000000000000000000000000000000815260206004820152601360248201527f486173682063616e277420626520656d707479000000000000000000000000006044820152606401610620565b8151610bfa9060089060208501906126e3565b507fb20e0717219840fd5684a80bec782e8babb56ea224f677561b791a61192605c18282604051610c2c929190612d40565b60405180910390a15050565b600680546103d690612cb7565b336000908152600c602052604090205460ff16610cbe576040517f08c379a000000000000000000000000000000000000000000000000000000000815260206004820152601b60248201527f416464726573732063616c6c696e67206e6f74207472757374656400000000006044820152606401610620565b60005b8151811015610e7257600073ffffffffffffffffffffffffffffffffffffffff16828281518110610cf457610cf4612d65565b602002602001015173ffffffffffffffffffffffffffffffffffffffff1614156040518060400160405280601481526020017f457363726f773a207a65726f206164647265737300000000000000000000000081525090610d82576040517f08c379a000000000000000000000000000000000000000000000000000000000815260040161062091906127f6565b506001600c6000848481518110610d9b57610d9b612d65565b602002602001015173ffffffffffffffffffffffffffffffffffffffff1673ffffffffffffffffffffffffffffffffffffffff16815260200190815260200160002060006101000a81548160ff0219169083151502179055507fad3769ac0c1a91ee9dcf369f6d2989f91572b6f876933bbc82ab85f6b969a07a828281518110610e2757610e27612d65565b6020026020010151604051610e58919073ffffffffffffffffffffffffffffffffffffffff91909116815260200190565b60405180910390a180610e6a81612dc3565b915050610cc1565b5050565b336000908152600c602052604090205460ff16610eef576040517f08c379a000000000000000000000000000000000000000000000000000000000815260206004820152601b60248201527f416464726573732063616c6c696e67206e6f74207472757374656400000000006044820152606401610620565b42600b5411610f5a576040517f08c379a000000000000000000000000000000000000000000000000000000000815260206004820152601060248201527f436f6e74726163742065787069726564000000000000000000000000000000006044820152606401610620565b73ffffffffffffffffffffffffffffffffffffffff8616610fd7576040517f08c379a000000000000000000000000000000000000000000000000000000000815260206004820181905260248201527f496e76616c6964206f72206d697373696e6720746f6b656e207370656e6465726044820152606401610620565b73ffffffffffffffffffffffffffffffffffffffff8516611054576040517f08c379a000000000000000000000000000000000000000000000000000000000815260206004820181905260248201527f496e76616c6964206f72206d697373696e6720746f6b656e207370656e6465726044820152606401610620565b600061106660ff808616908716612dfc565b905060648111156110d3576040517f08c379a000000000000000000000000000000000000000000000000000000000815260206004820152601860248201527f50657263656e74616765206f7574206f6620626f756e647300000000000000006044820152606401610620565b600060015460ff1660058111156110ec576110ec612809565b14611179576040517f08c379a000000000000000000000000000000000000000000000000000000000815260206004820152602360248201527f457363726f77206e6f7420696e204c61756e636865642073746174757320737460448201527f61746500000000000000000000000000000000000000000000000000000000006064820152608401610620565b6001805473ffffffffffffffffffffffffffffffffffffffff808a16610100027fffffffffffffffffffffff0000000000000000000000000000000000000000ff90921691909117909155600280549188167fffffffffffffffffffffffff00000000000000000000000000000000000000009092169190911790556004805460ff8681167501000000000000000000000000000000000000000000027fffffffffffffffffffff00ffffffffffffffffffffffffffffffffffffffffff9189167401000000000000000000000000000000000000000002919091167fffffffffffffffffffff0000ffffffffffffffffffffffffffffffffffffffff9092169190911717905582516112939060069060208601906126e3565b5081516112a79060079060208501906126e3565b50600180547fffffffffffffffffffffffffffffffffffffffffffffffffffffffffffffff0016811790556040517f8ec464ac0c8e44e17130cd1ffb09967fa6f2c33339289678a59ea0112cfc2aa99061130690600690600790612eeb565b60405180910390a150505050505050565b336000908152600c602052604090205460ff16806113515750600154610100900473ffffffffffffffffffffffffffffffffffffffff1633145b6113b7576040517f08c379a000000000000000000000000000000000000000000000000000000000815260206004820152601b60248201527f416464726573732063616c6c696e67206e6f74207472757374656400000000006044820152606401610620565b6113bf610457565b611425576040517f08c379a000000000000000000000000000000000000000000000000000000000815260206004820152601b60248201527f546f6b656e20636f6e7472616374206f7574206f662066756e647300000000006044820152606401610620565b600060015460ff16600581111561143e5761143e612809565b14156114a6576040517f08c379a000000000000000000000000000000000000000000000000000000000815260206004820152601f60248201527f457363726f7720696e204c61756e6368656420737461747573207374617465006044820152606401610620565b600360015460ff1660058111156114bf576114bf612809565b1415611527576040517f08c379a000000000000000000000000000000000000000000000000000000000815260206004820152601b60248201527f457363726f7720696e20506169642073746174757320737461746500000000006044820152606401610620565b42600b5411611592576040517f08c379a000000000000000000000000000000000000000000000000000000000815260206004820152601060248201527f436f6e74726163742065787069726564000000000000000000000000000000006044820152606401610620565b61159a611f37565b835185511461162b576040517f08c379a000000000000000000000000000000000000000000000000000000000815260206004820152602b60248201527f416d6f756e74206f6620726563697069656e747320616e642076616c7565732060448201527f646f6e2774206d617463680000000000000000000000000000000000000000006064820152608401610620565b6000845111611696576040517f08c379a000000000000000000000000000000000000000000000000000000000815260206004820152601b60248201527f416d6f756e74732073686f756c64206e6f7420626520656d70747900000000006044820152606401610620565b8451606411611701576040517f08c379a000000000000000000000000000000000000000000000000000000000815260206004820152601360248201527f546f6f206d616e7920726563697069656e7473000000000000000000000000006044820152606401610620565b600460015460ff16600581111561171a5761171a612809565b1415801561173f5750600560015460ff16600581111561173c5761173c612809565b14155b6117a5576040517f08c379a000000000000000000000000000000000000000000000000000000000815260206004820152600e60248201527f496e76616c6964207374617475730000000000000000000000000000000000006044820152606401610620565b60006117af610457565b90506000805b86518110156118a75760008782815181106117d2576117d2612d65565b602002602001015111611867576040517f08c379a000000000000000000000000000000000000000000000000000000000815260206004820152602260248201527f416d6f756e742073686f756c642062652067726561746572207468616e207a6560448201527f726f0000000000000000000000000000000000000000000000000000000000006064820152608401610620565b61189387828151811061187c5761187c612d65565b602002602001015183611eb590919063ffffffff16565b91508061189f81612dc3565b9150506117b5565b506b033b2e3c9fd0803ce8000000811061191d576040517f08c379a000000000000000000000000000000000000000000000000000000000815260206004820152601360248201527f42756c6b2076616c756520746f6f2068696768000000000000000000000000006044820152606401610620565b81811115611987576040517f08c379a000000000000000000000000000000000000000000000000000000000815260206004820152601260248201527f4e6f7420656e6f7567682062616c616e636500000000000000000000000000006044820152606401610620565b84516119ef576040517f08c379a000000000000000000000000000000000000000000000000000000000815260206004820152601260248201527f55524c2063616e277420626520656d70747900000000000000000000000000006044820152606401610620565b8351611a57576040517f08c379a000000000000000000000000000000000000000000000000000000000815260206004820152601360248201527f486173682063616e277420626520656d707479000000000000000000000000006044820152606401610620565b8451611a6a9060099060208801906126e3565b508351611a7e90600a9060208701906126e3565b506000806000611a8d89611fab565b92509250925060005b8a51811015611b0d576000848281518110611ab357611ab3612d65565b60200260200101511115611afd57611afd8b8281518110611ad657611ad6612d65565b6020026020010151858381518110611af057611af0612d65565b602002602001015161213d565b611b0681612dc3565b9050611a96565b508115611b3c57600154611b3c90610100900473ffffffffffffffffffffffffffffffffffffffff168361213d565b8015611b6557600254611b659073ffffffffffffffffffffffffffffffffffffffff168261213d565b611b6d610457565b9450600085611ba95750600180547fffffffffffffffffffffffffffffffffffffffffffffffffffffffffffffff001660031790556000611bd6565b50600180547fffffffffffffffffffffffffffffffffffffffffffffffffffffffffffffff001660021781555b867f776950576f5bac7433f5095f1490841528a48d38607deca7d6f270988ec32b8a8c8684604051611c0a93929190612f10565b60405180910390a2505050505050611c226001600055565b5050505050565b600880546103d690612cb7565b336000908152600c602052604081205460ff16611caf576040517f08c379a000000000000000000000000000000000000000000000000000000000815260206004820152601b60248201527f416464726573732063616c6c696e67206e6f74207472757374656400000000006044820152606401610620565b611cb7610457565b611d1d576040517f08c379a000000000000000000000000000000000000000000000000000000000815260206004820152601b60248201527f546f6b656e20636f6e7472616374206f7574206f662066756e647300000000006044820152606401610620565b600460015460ff166005811115611d3657611d36612809565b1415611d9e576040517f08c379a000000000000000000000000000000000000000000000000000000000815260206004820152601f60248201527f457363726f7720696e20436f6d706c65746520737461747573207374617465006044820152606401610620565b600360015460ff166005811115611db757611db7612809565b1415611e1f576040517f08c379a000000000000000000000000000000000000000000000000000000000815260206004820152601b60248201527f457363726f7720696e20506169642073746174757320737461746500000000006044820152606401610620565b611e27611f37565b600454611e519073ffffffffffffffffffffffffffffffffffffffff16611e4c610457565b61213d565b600180547fffffffffffffffffffffffffffffffffffffffffffffffffffffffffffffff001660051790556040517f63b958841f79ab97cb5456da181454b9932c0e15a3b17f1cbd27e2a8bc61043790600090a1506001611eb26001600055565b90565b600080611ec28385612dfc565b905083811015611f2e576040517f08c379a000000000000000000000000000000000000000000000000000000000815260206004820152601b60248201527f536166654d6174683a206164646974696f6e206f766572666c6f7700000000006044820152606401610620565b90505b92915050565b60026000541415611fa4576040517f08c379a000000000000000000000000000000000000000000000000000000000815260206004820152601f60248201527f5265656e7472616e637947756172643a207265656e7472616e742063616c6c006044820152606401610620565b6002600055565b60606000806000845167ffffffffffffffff811115611fcc57611fcc612879565b604051908082528060200260200182016040528015611ff5578160200160208202803683370190505b50905060008060005b875181101561212f57600061205860646120528b858151811061202357612023612d65565b602090810291909101015160045474010000000000000000000000000000000000000000900460ff1690612161565b90612216565b905060006120a660646120528c868151811061207657612076612d65565b60209081029190910101516004547501000000000000000000000000000000000000000000900460ff1690612161565b905060006120e0826120da858e88815181106120c4576120c4612d65565b602002602001015161225890919063ffffffff16565b90612258565b90506120ec8684611eb5565b95506120f88583611eb5565b94508087858151811061210d5761210d612d65565b602002602001018181525050505050808061212790612dc3565b915050611ffe565b509196909550909350915050565b600554610e729073ffffffffffffffffffffffffffffffffffffffff16838361229a565b60008261217057506000611f31565b600061217c8385612fa8565b9050826121898583612fe5565b14611f2e576040517f08c379a000000000000000000000000000000000000000000000000000000000815260206004820152602160248201527f536166654d6174683a206d756c7469706c69636174696f6e206f766572666c6f60448201527f77000000000000000000000000000000000000000000000000000000000000006064820152608401610620565b6000611f2e83836040518060400160405280601a81526020017f536166654d6174683a206469766973696f6e206279207a65726f00000000000081525061232c565b6000611f2e83836040518060400160405280601e81526020017f536166654d6174683a207375627472616374696f6e206f766572666c6f77000081525061237d565b6040805173ffffffffffffffffffffffffffffffffffffffff8416602482015260448082018490528251808303909101815260649091019091526020810180517bffffffffffffffffffffffffffffffffffffffffffffffffffffffff167fa9059cbb000000000000000000000000000000000000000000000000000000001790526123279084906123c8565b505050565b60008183612367576040517f08c379a000000000000000000000000000000000000000000000000000000000815260040161062091906127f6565b5060006123748486612fe5565b95945050505050565b600081848411156123bb576040517f08c379a000000000000000000000000000000000000000000000000000000000815260040161062091906127f6565b5060006123748486613020565b600061242a826040518060400160405280602081526020017f5361666545524332303a206c6f772d6c6576656c2063616c6c206661696c65648152508573ffffffffffffffffffffffffffffffffffffffff166124d79092919063ffffffff16565b905080516000148061244b57508080602001905181019061244b9190613037565b612327576040517f08c379a000000000000000000000000000000000000000000000000000000000815260206004820152602a60248201527f5361666545524332303a204552433230206f7065726174696f6e20646964206e60448201527f6f742073756363656564000000000000000000000000000000000000000000006064820152608401610620565b60606124e684846000856124ee565b949350505050565b606082471015612580576040517f08c379a000000000000000000000000000000000000000000000000000000000815260206004820152602660248201527f416464726573733a20696e73756666696369656e742062616c616e636520666f60448201527f722063616c6c00000000000000000000000000000000000000000000000000006064820152608401610620565b6000808673ffffffffffffffffffffffffffffffffffffffff1685876040516125a99190612d0b565b60006040518083038185875af1925050503d80600081146125e6576040519150601f19603f3d011682016040523d82523d6000602084013e6125eb565b606091505b50915091506125fc87838387612607565b979650505050505050565b6060831561269a5782516126935773ffffffffffffffffffffffffffffffffffffffff85163b612693576040517f08c379a000000000000000000000000000000000000000000000000000000000815260206004820152601d60248201527f416464726573733a2063616c6c20746f206e6f6e2d636f6e74726163740000006044820152606401610620565b50816124e6565b6124e683838151156126af5781518083602001fd5b806040517f08c379a000000000000000000000000000000000000000000000000000000000815260040161062091906127f6565b8280546126ef90612cb7565b90600052602060002090601f0160209004810192826127115760008555612757565b82601f1061272a57805160ff1916838001178555612757565b82800160010185558215612757579182015b8281111561275757825182559160200191906001019061273c565b50612763929150612767565b5090565b5b808211156127635760008155600101612768565b60005b8381101561279757818101518382015260200161277f565b838111156127a6576000848401525b50505050565b600081518084526127c481602086016020860161277c565b601f017fffffffffffffffffffffffffffffffffffffffffffffffffffffffffffffffe0169290920160200192915050565b602081526000611f2e60208301846127ac565b7f4e487b7100000000000000000000000000000000000000000000000000000000600052602160045260246000fd5b6020810160068310612873577f4e487b7100000000000000000000000000000000000000000000000000000000600052602160045260246000fd5b91905290565b7f4e487b7100000000000000000000000000000000000000000000000000000000600052604160045260246000fd5b604051601f82017fffffffffffffffffffffffffffffffffffffffffffffffffffffffffffffffe016810167ffffffffffffffff811182821017156128ef576128ef612879565b604052919050565b600082601f83011261290857600080fd5b813567ffffffffffffffff81111561292257612922612879565b61295360207fffffffffffffffffffffffffffffffffffffffffffffffffffffffffffffffe0601f840116016128a8565b81815284602083860101111561296857600080fd5b816020850160208301376000918101602001919091529392505050565b6000806040838503121561299857600080fd5b823567ffffffffffffffff808211156129b057600080fd5b6129bc868387016128f7565b935060208501359150808211156129d257600080fd5b506129df858286016128f7565b9150509250929050565b600067ffffffffffffffff821115612a0357612a03612879565b5060051b60200190565b803573ffffffffffffffffffffffffffffffffffffffff81168114612a3157600080fd5b919050565b600082601f830112612a4757600080fd5b81356020612a5c612a57836129e9565b6128a8565b82815260059290921b84018101918181019086841115612a7b57600080fd5b8286015b84811015612a9d57612a9081612a0d565b8352918301918301612a7f565b509695505050505050565b600060208284031215612aba57600080fd5b813567ffffffffffffffff811115612ad157600080fd5b6124e684828501612a36565b803560ff81168114612a3157600080fd5b60008060008060008060c08789031215612b0757600080fd5b612b1087612a0d565b9550612b1e60208801612a0d565b9450612b2c60408801612add565b9350612b3a60608801612add565b9250608087013567ffffffffffffffff80821115612b5757600080fd5b612b638a838b016128f7565b935060a0890135915080821115612b7957600080fd5b50612b8689828a016128f7565b9150509295509295509295565b600080600080600060a08688031215612bab57600080fd5b853567ffffffffffffffff80821115612bc357600080fd5b612bcf89838a01612a36565b9650602091508188013581811115612be657600080fd5b8801601f81018a13612bf757600080fd5b8035612c05612a57826129e9565b81815260059190911b8201840190848101908c831115612c2457600080fd5b928501925b82841015612c4257833582529285019290850190612c29565b98505050506040880135915080821115612c5b57600080fd5b612c6789838a016128f7565b94506060880135915080821115612c7d57600080fd5b50612c8a888289016128f7565b95989497509295608001359392505050565b600060208284031215612cae57600080fd5b611f2e82612a0d565b600181811c90821680612ccb57607f821691505b60208210811415612d05577f4e487b7100000000000000000000000000000000000000000000000000000000600052602260045260246000fd5b50919050565b60008251612d1d81846020870161277c565b9190910192915050565b600060208284031215612d3957600080fd5b5051919050565b604081526000612d5360408301856127ac565b828103602084015261237481856127ac565b7f4e487b7100000000000000000000000000000000000000000000000000000000600052603260045260246000fd5b7f4e487b7100000000000000000000000000000000000000000000000000000000600052601160045260246000fd5b60007fffffffffffffffffffffffffffffffffffffffffffffffffffffffffffffffff821415612df557612df5612d94565b5060010190565b60008219821115612e0f57612e0f612d94565b500190565b8054600090600181811c9080831680612e2e57607f831692505b6020808410821415612e69577f4e487b7100000000000000000000000000000000000000000000000000000000600052602260045260246000fd5b83885260208801828015612e845760018114612eb357612ede565b7fffffffffffffffffffffffffffffffffffffffffffffffffffffffffffffff00871682528282019750612ede565b60008981526020902060005b87811015612ed857815484820152908601908401612ebf565b83019850505b5050505050505092915050565b604081526000612efe6040830185612e14565b82810360208401526123748185612e14565b606080825284519082018190526000906020906080840190828801845b82811015612f5f57815173ffffffffffffffffffffffffffffffffffffffff1684529284019290840190600101612f2d565b5050508381038285015285518082528683019183019060005b81811015612f9457835183529284019291840191600101612f78565b5050851515604086015292506124e6915050565b6000817fffffffffffffffffffffffffffffffffffffffffffffffffffffffffffffffff0483118215151615612fe057612fe0612d94565b500290565b60008261301b577f4e487b7100000000000000000000000000000000000000000000000000000000600052601260045260246000fd5b500490565b60008282101561303257613032612d94565b500390565b60006020828403121561304957600080fd5b81518015158114611f2e57600080fdfea2646970667358221220bffdcf2ca94e1499aa8338553dfe02f10f9a14f6311e06e57c2a293949937e4a64736f6c63430008090033",
  "linkReferences": {},
  "deployedLinkReferences": {}
}